:100000000C9435000C945D000C945D000C945D0024
:100010000C945D000C945D000C945D000C945D00EC
:100020000C945D000C945D000C945D000C945D00DC
:100030000C945D000C945D000C945D000C945D00CC
:100040000C9406030C945D000C94D4020C94AE0244
:100050000C945D000C945D000C945D000C945D00AC
:100060000C945D000C945D002D0411241FBECFEF95
:10007000D8E0DEBFCDBF22E0A0E7B1E001C01D9215
:10008000A631B207E1F711E0A0E0B1E0E8E0F9E065
:1000900002C005900D92A037B107D9F710E0C5E373
:1000A000D0E004C02197FE010E947C04C433D10734
:1000B000C9F70E9450030C9482040C940000AF9284
:1000C000BF92CF92DF92EF92FF920F931F93CF9345
:1000D000DF936C017B018B01040F151FEB015E01A7
:1000E000AE18BF08C017D10759F06991D601ED913C
:1000F000FC910190F081E02DC6010995892B79F7DB
:10010000C501DF91CF911F910F91FF90EF90DF908C
:10011000CF90BF90AF900895FC01538D448D252F53
:1001200030E0842F90E0821B930B541710F0CF9691
:10013000089501970895FC01918D828D981761F0C3
:10014000A28DAE0FBF2FB11D5D968C91928D9F5FDA
:100150009F73928F90E008958FEF9FEF0895FC01B9
:10016000918D828D981731F0828DE80FF11D858D6C
:1001700090E008958FEF9FEF0895FC01918D228DFF
:10018000892F90E0805C9F4F821B91098F73992784
:10019000089589E791E00E94BD0021E0892B09F4D0
:1001A00020E0822F089580E090E0892B29F00E94C2
:1001B000C90081110C9400000895FC01A48DA80FC2
:1001C000B92FB11DA35ABF4F2C91848D90E0019699
:1001D0008F739927848FA689B7892C93A089B189B9
:1001E0008C91837080648C93938D848D981306C05A
:1001F0000288F389E02D80818F7D80830895EF92BE
:10020000FF920F931F93CF93DF93EC0181E0888FD0
:100210009B8D8C8D98131AC0E889F989808185FFA0
:1002200015C09FB7F894EE89FF896083E889F98942
:1002300080818370806480839FBF81E090E0DF9144
:10024000CF911F910F91FF90EF900895F62E0B8D97
:1002500010E00F5F1F4F0F731127E02E8C8D8E1152
:100260000CC00FB607FCFACFE889F989808185FFB9
:10027000F5CFCE010E94DD00F1CFEB8DEC0FFD2F0D
:10028000F11DE35AFF4FF0829FB7F8940B8FEA8974
:10029000FB8980818062CFCFCF93DF93EC01888D83
:1002A0008823B9F0AA89BB89E889F9898C9185FDF1
:1002B00003C0808186FD0DC00FB607FCF7CF8C917F
:1002C00085FFF2CF808185FFEDCFCE010E94DD005A
:1002D000E9CFDF91CF9108953FB7F89480917501F0
:1002E00090917601A0917701B091780126B5A89BF5
:1002F00005C02F3F19F00196A11DB11D3FBFBA2FB8
:10030000A92F982F8827BC01CD01620F711D811D77
:10031000911D42E0660F771F881F991F4A95D1F7FC
:100320000895CF9389E791E00E94BD00029784F081
:1003300089E791E00E949B00C82F89E791E00E9425
:100340009B0020E0382FC9018C0F911DCF9108959B
:100350008FEF9FEFFBCFFC0101900020E9F7319771
:10036000AF01481B590BBC0189E791E00C945F0079
:100370008F929F92AF92BF920F931F93CF93DF9371
:10038000CDB7DEB7A1970FB6F894DEBF0FBECDBFD5
:1003900019A2423008F44AE08E010F5D1F4F842EEF
:1003A000912CB12CA12CA50194010E945A04E62F96
:1003B000B901CA01EA30F4F4E05DD801EE938D0191
:1003C000232B242B252B79F790E080E0109719F050
:1003D000CD010E94AB01A1960FB6F894DEBF0FBE0F
:1003E000CDBFDF91CF911F910F91BF90AF909F90A4
:1003F0008F900895E95CE1CFCF92DF92EF92FF9268
:10040000CF93DF936B017C016DE289E791E00E945D
:10041000FF00EC0166277727CB016C197D098E0957
:100420009F094AE00E94B8018C0F9D1FDF91CF9178
:10043000FF90EF90DF90CF900895CF93DF93BC01B2
:10044000990F880B990B97FF0CC00E94FC01EC01DF
:1004500086E191E00E94AB018C0F9D1FDF91CF914F
:1004600008954AE00E94B801F2CFEF92FF920F93F5
:100470001F93CF93DF93D82FC92F89E191E00E947A
:10048000AB018D2F9C2F0E941D028D2F9C2F97FD5D
:100490000196EC01D595C795F12CE12C01E010E017
:1004A000EC16FD0674F40E9491019801289F8001CA
:1004B000299F100D389F100D11243FEFE31AF30A06
:1004C000EFCF8DE291E00E94AB01C801DF91CF91A7
:1004D0001F910F91FF90EF900C941D02EF92FF92ED
:1004E0000F931F93CF93DF93EC018CE391E00E9475
:1004F000AB01BE010D2E000C880B990B97FF1DC0A0
:100500000E94FC018FE491E00E94AB0186E191E042
:100510000E94AB01D7FD2196D595C795F12CE12C12
:1005200010E000E0EC16FD0664F40E949101080F53
:10053000191F8FEFE81AF80AF5CF4AE00E94B801B8
:10054000E1CF80E691E00E94AB01C801DF91CF913D
:100550001F910F91FF90EF900C941D021F920F922C
:100560000FB60F9211242F933F934F935F936F9386
:100570007F938F939F93AF93BF93EF93FF9389E7FD
:1005800091E00E94DD00FF91EF91BF91AF919F91AB
:100590008F917F916F915F914F913F912F910F902C
:1005A0000FBE0F901F9018951F920F920FB60F92CB
:1005B00011242F938F939F93EF93FF93E0918901E1
:1005C000F0918A018081E0918F01F091900182FD8C
:1005D0001BC09081809192018F5F8F732091930156
:1005E000821741F0E0919201F0E0E758FE4F958FBD
:1005F00080939201FF91EF919F918F912F910F9096
:100600000FBE0F901F9018958081F4CF1F920F920C
:100610000FB60F9211242F933F938F939F93AF9315
:10062000BF938091710190917201A0917301B0917B
:1006300074013091700123E0230F2D3758F5019696
:10064000A11DB11D209370018093710190937201DF
:10065000A0937301B093740180917501909176011C
:10066000A0917701B09178010196A11DB11D8093F1
:10067000750190937601A0937701B0937801BF91B3
:10068000AF919F918F913F912F910F900FBE0F903F
:100690001F90189526E8230F0296A11DB11DD2CFF9
:1006A000789484B5826084BD84B5816084BD85B54D
:1006B000826085BD85B5816085BD80916E00816059
:1006C00080936E00109281008091810082608093FF
:1006D0008100809181008160809381008091800001
:1006E0008160809380008091B10084608093B1002C
:1006F0008091B00081608093B00080917A00846026
:1007000080937A0080917A00826080937A00809151
:100710007A00816080937A0080917A00806880936B
:100720007A001092C100E0918901F0918A0182E083
:100730008083E0918501F09186011082E09187012C
:10074000F091880183E0808310929101E0918D0106
:10075000F0918E0186E08083E0918B01F0918C0115
:10076000808180618083E0918B01F0918C01808198
:1007700088608083E0918B01F0918C01808180689A
:100780008083E0918B01F0918C0180818F7D80834B
:1007900084E690E0A0E0B0E080937D0190937E013C
:1007A000A0937F01B093800120E0E22E20E0F22EA2
:1007B0000E946C012B013C019AE0892E912CA12C06
:1007C000B12C0E946C016419750986099709683E6D
:1007D000734081059105A8F321E0821A9108A108D0
:1007E000B10888EE480E83E0581E611C711C81140C
:1007F0009104A104B10429F789E791E00E94BD00AA
:100800000397FCF089E791E00E949B00C82F89E7DD
:1008100091E00E949B008C01112789E791E00E94E2
:10082000BD0080179107CCF38C2F8C50990BFC01E5
:10083000EE0FFF1FEE5EFE4F0190F081E02DC8012C
:100840000995E114F10409F4B3CF0E94C90088238B
:1008500009F4AECF0E940000ABCFE9E7F1E01382CC
:10086000128288EE93E0A0E0B0E084839583A683B3
:10087000B78384E091E09183808385EC90E0958755
:10088000848784EC90E09787868780EC90E0918B5A
:10089000808B81EC90E0938B828B82EC90E0958B47
:1008A000848B86EC90E0978B868B118E128E138E44
:1008B000148E0895A1E21A2EAA1BBB1BFD010DC0C8
:1008C000AA1FBB1FEE1FFF1FA217B307E407F50700
:1008D00020F0A21BB30BE40BF50B661F771F881FDC
:1008E000991F1A9469F760957095809590959B0172
:1008F000AC01BD01CF010895EE0FFF1F0590F491EB
:08090000E02D0994F894FFCFEB
:1009080000000000FF005F008C004C01BD009B0050
:10091800AF006E0235020D0A0068616E646C657284
:10092800322072656365697665643A200048616EB5
:10093800646C65723220676F743A200068616E6477
:100948006C65723120726563656976656420002084
:10095800627974657320617320706172616D7300D0
:1009680048616E646C65723120676F743A200000CC
:00000001FF
