:100000000C9424050C944C050C944C050C944C0554
:100010000C944C050C944C050C944C050C944C051C
:100020000C944C050C944C050C944C050C944C050C
:100030000C944C050C944C050C944C050C944C05FC
:100040000C94B0110C944C050C947E110C94581126
:100050000C944C050C944C050C944C050C944C05DC
:100060000C94FA110C944C05084AD73B3BCE016E18
:1000700084BCBFFDC12F3D6C74319ABD56833DDAFF
:100080003D00C77F11BED9E4BB4C3E916BAAAABE0E
:10009000000000803F0000407A10F35A00A0724E2A
:1000A00018090010A5D4E80000E87648170000E41D
:1000B0000B54020000CA9A3B000000E1F505000065
:1000C00080969800000040420F000000A0860100CA
:1000D0000000102700000000E8030000000064009A
:1000E000000000000A000000000001000000000005
:1000F0002C76D888DC674F0823DFC1DFAE59E1B129
:10010000B796E5E3E453C63AE651997696E8E6C237
:100110008426EB898C9B62ED407C6FFCEFBC9C9F3E
:1001200040F2BAA56FA5F490055A2AF75C936B6C60
:10013000F9676DC11BFCE0E40D47FEF520E6B50054
:10014000D0ED902E0300943577050080841E0800C2
:1001500000204E0A000000C80C333333330F986E72
:1001600012831141EF8D2114893BE65516CFFEE62F
:10017000DB18D1844B381BF77C1D901DA4BBE424F5
:10018000203284725E228100C9F124ECA1E53D2772
:1001900000000000250028002B00040404040404CF
:1001A0000404020202020202030303030303010226
:1001B00004081020408001020408102001020408F5
:1001C00010200000000800020100000304070000E6
:1001D0000000000000000A002000002C2020002069
:1001E00000002C2020002000002C202000200000F7
:1001F0002C2020002000002C2020002000000A2FAE
:100200002F20202020202020202020205820416343
:1002100063656C20205920416363656C20205A205F
:10022000416363656C20202058204779726F20203D
:100230002059204779726F2020205A204779726F09
:100240000A2F2F4F46465345545320202000FB00D1
:10025000003E000B003600010002000300000065B4
:100260000054FFEF0000FA80000B12820001000230
:100270000000000000000000000000000000002856
:100280000000FFFF4581FFFFFA7200000000000040
:1002900003E80000000100017FFFFFFE8001001B5A
:1002A000000000000000000000000000000000400E
:1002B00000004000000002CB47A220000000200008
:1002C000000000000000400000006000000041FF4E
:1002D000000000000B2A0000165500002182FD8757
:1002E0002650FD800000001F000000058000000077
:1002F00000000001000000020000000300004000B8
:1003000000000000046F0002653200005EC0400083
:100310000000000000000000000000000000FB8C56
:100320006F5DFD5D08D9007C733B006C12CC320020
:10033000139D3200D0D632000800400001F4FFE6E1
:100340008079020000000000D0D600002710FB00DA
:10035000000040000000000000000000000000005D
:10036000000100000000000001000100000000008A
:10037000FA36FFBC308E0005FBF0FFD95BC8FFD01A
:100380009ABE000010A9FFF41EB200CEBBF7000019
:10039000000100000004000200020200000CFFC285
:1003A00080000001800000CF8000400000000000BD
:1003B0000000000000000000060000000014000023
:1003C000000000000000000000000000000000002D
:1003D00000000000000000000000000000000923F1
:1003E000A135000000000000000000000000000037
:1003F0000000033F68B6793528BCC67ED16C80000A
:10040000FFFF400000000000B26A00000000000092
:1004100000000000000000003FF00000003000007D
:1004200000000000000000000000000000000000CC
:10043000000000000000000000000000400000007C
:10044000254D002F706D000005AE000C02D000009D
:10045000000000650054FFEF0000000000000000F5
:1004600001000044000100058BC1000001000000F4
:1004700000000065000000540000FFEF00000000D5
:10048000000000000000000000000000000000006C
:10049000000000000000000000000000000000005C
:1004A000000000000000000000000000000000004C
:1004B0000001000000020000000000000000000039
:1004C000000000000000000000000000000000002C
:1004D0000000000000000000000000000000001B01
:1004E000000000000000000000000000000000000C
:1004F00000000000000000000000000000000000FC
:100500000000000000000000000000000000001BD0
:1005100000000000000000000000000000000000DB
:1005200000000000000000000000000000000000CB
:1005300000000000000000000000000000000000BB
:100540000000000000000000000000000000D8DCF7
:10055000BAA2F1DEB2B8B4A88191F74A907F916A4D
:10056000F3F9DBA8F9B0BAA080F2CE81F3C2F1C1F1
:10057000F2C3F3CCA2B280F1C6D880BAA7DFDFDF26
:10058000F2A7C3CBC5B6F087A2942448703C95402F
:100590006834589B78A2F183922D557DD8B1B4B8B8
:1005A000A1D09180F270F370F27C80A8F101B09834
:1005B00087D943D886C988BAA1F20EB89780F1A925
:1005C000DFDFDFAADFDFDFF2AA4CCD6CA90CC92C7C
:1005D00097979797F1A989264666B0B4BA80ACDEA2
:1005E000F2CAF1B28C02A9B69800890E161EB8A9FB
:1005F000B4992C547CB08AA896365676F1B9AFB42B
:10060000B083C0B8A89711B18F98B9AFF02408444F
:10061000106418F1A329557DAF83B593AFF000287E
:1006200050F1A3869F61A6DADEDFD9FAA38696DBB6
:1006300031A6D9F8DFBAA68FC2C5C7B28CC1B8A29D
:10064000DFDFDFA3DFDFDFD8D8F1B8A8B286B49848
:100650000D355DB8AA98B0872D353DB2B6BAAF8CCE
:1006600096198F9FA70E161EB49AB8AA872C547C91
:10067000B9A3DEDFDFA3B180F2C4CDC9F1B8A9B45C
:1006800099830D355D89B9A32D557DB593A30E16BC
:100690001EA92C547CB8B4B0F19783A81184A50985
:1006A00098A383F0DA240844106418D8F1A52955DA
:1006B0007DA58595021A2E3A565A4048F9F3A3D9DA
:1006C000F8F098832408441064189782A8F111F078
:1006D00098A2240844106418DAF3DED883A59401A4
:1006E000D9A302F1A2C3C5C7D8F18492A24DDA2AD8
:1006F000D84869D92AD86855DA32D85071D932D851
:10070000705DDA3AD85879D93AD87893A34DDA2A75
:10071000D84869D92AD86855DA32D85071D932D830
:10072000705DDA3AD85879D93AD878A88A9AF028F8
:1007300050789EF38818F19F1D98A8D908D8C89FB3
:10074000129EF315A8DA1210D8F1AFC8978734B506
:10075000B994A421F3D922D8F22DF3D92AD8F235AD
:10076000F3D932D881A4606061D961D86C6869D945
:1007700069D8747071D971D8B1A384193D5DA38310
:100780001A3E5E931030811011B8B0AF8F94F2DA38
:100790003ED8B49AA88729DAF8D8879A35DAF8D8F3
:1007A000879A3DDAF8D8B1B9A49885022E56A5816A
:1007B000000C14A397B08AF12DD928D84DD948D868
:1007C0006DD968D8B1840DDA0ED8A32983DA2C0E3E
:1007D000D8A3844983DA2C4C0ED8B8B0A88A9AF5ED
:1007E00020AADADFD8A840AAD0DADED8A860AADA30
:1007F000D0DFD8F19786A8319B069907AB97288858
:100800009BF00C201440B8B0B4A88C9CF004285184
:10081000791D301438B282ABD0982C505078789B28
:10082000F11AB0F08A9CA82951798B2951798A2430
:1008300070598B2058718A4469388B3940688A64B2
:1008400048318B304960A5882009715844681139B6
:1008500064493019F1AC002C547CF08CA804285069
:1008600078F1889726A85998AC8C02264666F089BC
:100870009CA8295179247059446938644831A98861
:1008800009205970AB11384069A8193148608CA80B
:100890003C415C207C00F187981986A86E767EA981
:1008A00099882D557D9EB9A38A228A6E8A568A5EC2
:1008B0009FB183062646660E2E4E6E9DB8AD002C67
:1008C000547CF2B18CB499B9A32D557D8191AC388B
:1008D000AD3AB58391AC2DD928D84DD948D86DD92A
:1008E00068D88C9DAE29D904AED851D904AED87938
:1008F000D904D881F39DAD008DAE1981ADD901D851
:10090000F2AEDA26D88E912983A7D9ADADADADF37D
:100910002AD8D8F1B0AC89913E5E76F3AC2E2EF198
:10092000B18C5A9CAC2C2828289CAC3018A89881F3
:1009300028343C9724A728343C9C24F2B089AC91FD
:100940002C4C6C8A9B2DD9D8D851D9D8D879D9D8E4
:10095000D8F19E88A331DAD8D8912DD928D84DD98D
:1009600048D86DD968D8B18393353D8025DAD8D879
:100970008569DAD8D8B49381A328343CF3AB8BF8DB
:10098000A391B609B4D9ABDEFAB0879CB9A3DDF167
:10099000202830389AF12830389DF1A3A3A3A3F280
:1009A000A3B49080F2A3A3A3A3A3A3A3A3A3A3B2DE
:1009B000A3A3A3A3A3A3B087B599F128303898F1D6
:1009C000A3A3A3A397A3A3A3A3F39BA330DCB9A7DB
:1009D000F1262626FED8FF526573657474696E672A
:1009E000206D656D6F72792062616E6B2073656C2E
:1009F000656374696F6E20746F20302E2E2E005246
:100A000065766973696F6E204020757365725B311E
:100A1000365D5B365D203D2000436865636B696E23
:100A200067206861726477617265207265766973A8
:100A3000696F6E2E2E2E004649464F206F766572E6
:100A4000666C6F772100191311241FBECFEFD8E019
:100A5000DEBFCDBF11E0A0E0B1E0EAE9F0E402C002
:100A600005900D92AE33B107D9F723E0AEE3B1E0C4
:100A700001C01D92A533B207E1F715E0C4E2D5E04D
:100A800004C02197FE010E94131FC332D107C9F78A
:100A90000E949D130C944B200C940000089508951F
:100AA000AF92BF92CF92DF92EF92FF920F931F937C
:100AB000CF93DF936C017B018B01040F151FEB01BA
:100AC0005E01AE18BF08C017D10759F06991D60171
:100AD000ED91FC910190F081E02DC6010995892BE3
:100AE00079F7C501DF91CF911F910F91FF90EF90A2
:100AF000DF90CF90BF90AF900895FC01538D448D4F
:100B0000252F30E0842F90E0821B930B541710F0B8
:100B1000CF96089501970895FC01918D828D9817C5
:100B200061F0A28DAE0FBF2FB11D5D968C91928D9D
:100B30009F5F9F73928F90E008958FEF9FEF0895CE
:100B4000FC01918D828D981731F0828DE80FF11D97
:100B5000858D90E008958FEF9FEF0895FC01918DB2
:100B6000228D892F90E0805C9F4F821B91098F73AB
:100B70009927089583E092E00E94AE0521E0892B39
:100B800009F420E0822F089580E090E0892B29F07D
:100B90000E94BA0581110C9400000895FC01A48DF7
:100BA000A80FB92FB11DA35ABF4F2C91848D90E08F
:100BB00001968F739927848FA689B7892C93A08972
:100BC000B1898C91837080648C93938D848D9813FC
:100BD00006C00288F389E02D80818F7D808308958F
:100BE000EF92FF920F931F93CF93DF93EC0181E07D
:100BF000888F9B8D8C8D98131AC0E889F989808124
:100C000085FF15C09FB7F894EE89FF896083E88956
:100C1000F98980818370806480839FBF81E090E048
:100C2000DF91CF911F910F91FF90EF900895F62ED5
:100C30000B8D10E00F5F1F4F0F731127E02E8C8D6F
:100C40008E110CC00FB607FCFACFE889F9898081B4
:100C500085FFF5CFCE010E94CE05F1CFEB8DEC0FD5
:100C6000FD2FF11DE35AFF4FF0829FB7F8940B8FD1
:100C7000EA89FB8980818062CFCF0F931F93CF9346
:100C8000DF938C01D0E0C0E0F801EC0FFD1F649110
:100C9000662341F083E092E00E94F005892B11F079
:100CA0002196F2CFCE01DF91CF911F910F91089540
:100CB000CF93DF93EC01888D8823B9F0AA89BB8993
:100CC000E889F9898C9185FD03C0808186FD0DC07E
:100CD0000FB607FCF7CF8C9185FFF2CF808185FF9F
:100CE000EDCFCE010E94CE05E9CFDF91CF910895DF
:100CF00090E0FC01EE53FE4F2491FC01E255FE4FC3
:100D00003491FC01E656FE4FE491EE23C9F0222314
:100D100039F0233001F1A8F4213019F1223029F102
:100D2000F0E0EE0FFF1FE057FE4FA591B4918FB793
:100D3000F894EC91611126C030953E233C938FBF0F
:100D400008952730A9F02830C9F0243049F7809160
:100D500080008F7D03C0809180008F77809380001A
:100D6000DFCF84B58F7784BDDBCF84B58F7DFBCF9C
:100D70008091B0008F778093B000D2CF8091B00087
:100D80008F7DF9CF3E2BDACF3FB7F8948091870162
:100D900090918801A0918901B0918A0126B5A89B04
:100DA00005C02F3F19F00196A11DB11D3FBFBA2FFD
:100DB000A92F982F8827BC01CD01620F711D811DBD
:100DC000911D42E0660F771F881F991F4A95D1F742
:100DD00008958F929F92AF92BF92CF92DF92EF923F
:100DE000FF924B015C010E94C4066B017C010E94D2
:100DF000C4066C197D098E099F09683E7340810500
:100E00009105A8F321E0821A9108A108B10888EEA3
:100E1000C80E83E0D81EE11CF11C81149104A104CA
:100E2000B10429F7FF90EF90DF90CF90BF90AF9083
:100E30009F908F9008952FB7F894609183017091DF
:100E4000840180918501909186012FBF08952091A2
:100E50005F01260F3327331F21323105ECF4209137
:100E6000FD01FC0190E080E0243069F082E008950B
:100E7000A0915F012191AC01415C5E4FA40FB52FA1
:100E8000B11D2C930196861798F380915F01680F2E
:100E900060935F0180E0089581E008951092FD0164
:100EA00081E08093DC011092D70161E082E10E9431
:100EB000780661E083E10E947806E9EBF0E080814A
:100EC0008E7F808380818D7F808388E48093B800CB
:100ED00085E48093BC000895CF93DF9391E09093D5
:100EE0003E018823B9F0C091B800D091BA0080913A
:100EF000BC008A7B8093BC0060E082E10E9478069F
:100F000060E083E10E9478060E944E07D093BA0009
:100F1000C093B800DF91CF910895CF92DF92EF9206
:100F2000FF920F931F93CF93DF93D82FC62F613279
:100F300008F098C00E94C4066B017C018091FD01FD
:100F400081116BC081E08093FD018093DC019FEFF4
:100F50009093DB011092DA019C0F9093D90180935A
:100F6000D8018091D801DD0FD82BD093D801809182
:100F7000D701813009F078C01092D7010E94C406D1
:100F80006B017C018091D8018093BB008091FF01AF
:100F900090910002A0910102B0910202892B8A2B4C
:100FA0008B2BA1F00E94C4060091FF01109100025A
:100FB00020910102309102026C197D098E099F096E
:100FC000061717072807390708F448C08091BC00A6
:100FD00083FDD8CF85EC8093BC000E94C4066B01D2
:100FE0007C018091FD01813009F440C08091DA01DB
:100FF0008C1710F4C091DA01E7EBF1E0ADEDB1E050
:1010000080E08C1355C08C2FDF91CF911F910F91F1
:10101000FF90EF90DF90CF9008958091FF01909125
:101020000002A0910102B0910202892B8A2B8B2B26
:1010300009F484CF0E94C4060091FF0110910002C0
:1010400020910102309102026C197D098E099F09DD
:10105000061717072807390708F070CF8091FE019F
:101060000E946C07C0E0CFCF85EEB5CF8091FF0125
:1010700090910002A0910102B0910202892B8A2B6B
:101080008B2B09F4AECF0E94C4060091FF01109192
:10109000000220910102309102026C197D098E0933
:1010A0009F09061717072807390708F09ACFD6CFE8
:1010B00091919D938F5FA5CFCF92DF92EF92FF9298
:1010C0000F931F93CF93DF93D091B60181E0D1327C
:1010D00008F09CC0C091B5010E94C4066B017C0160
:1010E0008091FD0181116CC082E08093FD0181E05F
:1010F0008093DC018FEF8093DB011092DA01D093B3
:10110000D901A5E9B1E0E7EBF1E080E0D8138DC0AB
:101110001092D8018091D801CC0FC82BC093D80170
:101120008091D701813009F084C01092D7010E94CC
:10113000C4066B017C018091D8018093BB00809133
:10114000FF0190910002A0910102B0910202892B4F
:101150008A2B8B2BA1F00E94C4060091FF011091F5
:10116000000220910102309102026C197D098E0962
:101170009F09061717072807390708F442C080910E
:10118000BC0083FDD8CF85EC8093BC000E94C406D0
:101190006B017C018091FD01823009F44CC080918B
:1011A000DB018F3F09F469C08091DB01803209F4D3
:1011B00066C08091DB01803309F463C084E026C0FF
:1011C0008091FF0190910002A0910102B091020272
:1011D000892B8A2B8B2B09F483CF0E94C4060091A4
:1011E000FF011091000220910102309102026C195E
:1011F0007D098E099F09061717072807390708F088
:101200006FCF8091FE010E946C0785E010929401DF
:101210001092B60110929301DF91CF911F910F911F
:10122000FF90EF90DF90CF9008959D9191938F5F05
:101230006DCF85EEA9CF8091FF0190910002A09122
:101240000102B0910202892B8A2B8B2B09F4A2CFC9
:101250000E94C4060091FF0110910002209101023A
:10126000309102026C197D098E099F090617170734
:101270002807390708F08ECFC4CF80E0C7CF82E0BF
:10128000C5CF83E0C3CF0895E091900180918F0195
:10129000E81730F4F0E0E352FE4F808190E00895CB
:1012A0008FEF9FEF08959091900180918F012FEF24
:1012B0003FEF981748F4E92FF0E0E352FE4F20810A
:1012C00030E09F5F90939001C901089580918F0154
:1012D00090919001891B990B0895CF92DF92EF9224
:1012E000FF920F931F93CF93DF937C01CB018A0171
:1012F00020919301222389F0EB016B01C40ED51ECE
:10130000CC15DD0569F06991D701ED91FC91019053
:10131000F081E02DC7010995F3CF642F0E942707C4
:10132000C801DF91CF911F910F91FF90EF90DF9057
:10133000CF900895CF93DF931F92CDB7DEB7698327
:10134000209193012223F9F02091B601203258F028
:1013500021E030E0FC013383228390E080E00F90B5
:10136000DF91CF91089580919401E82FF0E0EB5642
:10137000FE4F998190838F5F809394018093B60193
:1013800081E090E0ECCF61E0CE0101960E9427075A
:10139000F7CFCF93DF93EA0191E09093930180938D
:1013A000B501109294011092B60180EA92E00E9479
:1013B0009A09698180EA92E00E949A09688180EA2C
:1013C00092E00E949A090E945C0891E0811190E0ED
:1013D000892FDF91CF91089590E080E00895FF92EA
:1013E0000F931F93CF93DF93042FF22E132F91E0CF
:1013F000909393018093B501109294011092B601DD
:1014000080EA92E00E949A09CF2DD12F0C0F1D2F58
:10141000111DC017D10731F0699180EA92E00E9456
:101420009A09F7CF0E945C0891E0811190E0892F22
:10143000DF91CF911F910F91FF900895CF93DF938C
:1014400000D0CDB7DEB75A834983AE014F5F5F4FFF
:101450000E94C9090F900F90DF91CF910895CF930B
:10146000DF931F92CDB7DEB749839E012F5F3F4FB9
:1014700041E00E94EF090F90DF91CF910895FC01A8
:1014800001900020E9F73197AF01481B590BBC01CF
:1014900083E092E00C945005CF93DF930E943D06C9
:1014A000EC018AE291E00E943F0A8C0F9D1FDF91C0
:1014B000CF9108958F929F92AF92BF920F931F93F7
:1014C000CF93DF93CDB7DEB7A1970FB6F894DEBF09
:1014D0000FBECDBF19A2423008F44AE08E010F5D65
:1014E0001F4F842E912CB12CA12CA50194010E9498
:1014F0009A1BE62FB901CA01EA30F4F4E05DD80185
:10150000EE938D01232B242B252B79F790E080E09F
:10151000109719F0CD010E943F0AA1960FB6F894DA
:10152000DEBF0FBECDBFDF91CF911F910F91BF9056
:10153000AF909F908F900895E95CE1CF009711F0F4
:101540000C943F0A90E080E008954F925F926F9272
:101550007F928F929F92AF92BF92CF92DF92EF9243
:10156000FF920F931F93CF936B017C01742EAC01FC
:101570009B010E94E51E882399F08DE291E0CF91B6
:101580001F910F91FF90EF90DF90CF90BF90AF90A1
:101590009F908F907F906F905F904F900C943F0A38
:1015A00046015701E894B7F82FEF3FEF4FE75FE7A9
:1015B000C501B4010E94E51E81110DC02FEF3FEF60
:1015C0004FE75FE7C501B4010E949B1C18161CF48D
:1015D00081E391E0D4CF2FEF3FEF4FE75FE4C70106
:1015E000B6010E94211E18161CF485E391E0C7CFB6
:1015F0002FEF3FEF4FE75FECC701B6010E949B1C46
:1016000087FDF3CF20E030E0A901C701B6010E94B9
:101610009B1C10E000E087FF0AC06DE283E092E0CF
:101620000E94F0058C01F7FAF094F7F8F094C0E00E
:1016300060E070E080E09FE37C1641F020E030E065
:1016400040E251E40E94A01CCF5FF6CFA7019601B3
:101650000E94BD1B2B013C010E94191D4B015C0126
:101660004AE00E945A0A7C01E00EF11ECC23C1F12F
:10167000C501B4010E94481D9B01AC01C301B20128
:101680000E94BC1B4B015C016EE283E092E00E9471
:10169000F005E80EF91EC15018F120E030E040E2FC
:1016A00051E4C501B4010E942E1E2B013C010E9491
:1016B000191D4B01B12CA12C4AE0C501B4010E94B7
:1016C0005A0AE80EF91EC501B4010E94481D9B018B
:1016D000AC01C301B2010E94BC1B4B015C01DBCF1A
:1016E000C701CF911F910F91FF90EF90DF90CF90A6
:1016F000BF90AF909F908F907F906F905F904F9032
:1017000008952F923F924F925F926F927F928F92A5
:101710009F92AF92BF92CF92DF92EF92FF920F9380
:101720001F93CF93DF93CDB7DEB729970FB6F89409
:10173000DEBF0FBECDBF582E6D834B833F832E83FC
:101740000E941B076B017C012B81622E712CC3014F
:10175000880F991F9A838983220F2B8399819C83F9
:10176000212C412C4801B12CA12CE981FA812E16A3
:101770001F060CF068C0F1E0F09393015092B501A0
:10178000109294011092B6016D8180EA92E00E945D
:101790009A090E945C0821E0209393011092940121
:1017A0001092B6016B81852D0E948D0710929001D9
:1017B00080938F013324339490918F018091900115
:1017C000981789F1842D042C000C990B9987888730
:1017D0008615970544F501151105D1F4E885F985BD
:1017E000EE0FFF1F2E813F81E20FF31FF987E8877D
:1017F00031101EC080EA92E00E945309E885F98505
:1018000020813181822B932B91838083439418C054
:101810000E941B076C197D098E099F0968157905BF
:101820008A059B05D8F20E945C083C81230E9DCF5F
:1018300080EA92E00E945309E885F985108281834D
:10184000F1E03F26B9CF01151105B1F00E941B0749
:101850006C197D098E099F0930E020E0601771073F
:101860008207930748F0842D042C000C990B8615F1
:10187000970514F444244A94842D29960FB6F894BD
:10188000DEBF0FBECDBFDF91CF911F910F91FF90B3
:10189000EF90DF90CF90BF90AF909F908F907F9010
:1018A0006F905F904F903F902F9008952F923F92AE
:1018B0004F925F926F927F928F929F92AF92BF9260
:1018C000CF92DF92EF92FF920F931F93CF93DF930C
:1018D00000D000D0CDB7DEB7782E662E4C833A8389
:1018E00029830E941B076B017C01512C1B822C81D8
:1018F000222E312C4801B12CA12C8C81581608F0D5
:1019000051C091E0909393017092B50110929401AF
:101910001092B601662D80EA92E00E949A090E9418
:101920005C0821E020939301109294011092B6017B
:10193000B101651971096132710514F060E270E05E
:10194000613208F060E2872D0E948D07482E1092C8
:10195000900180938F01809190014816E9F0011564
:10196000110579F480EA92E00E945309E981FA8135
:101970009B81E90FF11D97FDFA9580839F5F9B8303
:10198000EACF0E941B076C197D098E099F09681513
:1019900079058A059B0530F38C81813208F080E25D
:1019A000580EABCF01151105C1F00E941B076C1931
:1019B0007D098E099F0930E020E0601771078207DA
:1019C000930758F02B81822F220F990B2C81281717
:1019D000190619F014F08FEF8B838B810F900F9005
:1019E0000F900F90DF91CF911F910F91FF90EF908B
:1019F000DF90CF90BF90AF909F908F907F906F902F
:101A00005F904F903F902F9008952F923F924F926A
:101A10005F926F927F928F929F92AF92BF92CF927E
:101A2000DF92EF92FF920F931F93CF93DF933C01CE
:101A30005B01242E522E302E6DE68091AC020E9466
:101A40002F0A452D6EE68091AC020E942F0A80E19C
:101A500090E00E94191F6C01D0E0C0E0002329F043
:101A600080E190E00E94191FEC01F12CE12CC701EC
:101A700040964A2C4E18A816B90610F080E1482E60
:101A800080E091E0851991094816190619F014F0C3
:101A9000452C4194332079F0DE0190E080E0930101
:101AA0002E0D3F1D841550F4F901E80FF91FE49144
:101AB000ED930196F7CFE301CE0DDF1D9E01442D7E
:101AC0006FE68091AC020E94EF09842C912CC11426
:101AD000D104D1F1422D4F716DE68091AC020E948C
:101AE0002F0A452D6EE68091AC020E942F0A08EE67
:101AF00013E09601442D6FE68091AC020E94560CD3
:101B0000A401B601CE010E943E20892BE9F0C60156
:101B10000E94B51F332021F0CE010E94B51F312C49
:101B2000832DDF91CF911F910F91FF90EF90DF9068
:101B3000CF90BF90AF909F908F907F906F905F906D
:101B40004F903F902F900895E80CF91CEA14FB0485
:101B5000A8F4540C09F42394422D4F716DE6809142
:101B6000AC020E942F0A452D6EE68091AC020E94C5
:101B70002F0A7DCFCE010E94B51FD2CFC6010E9491
:101B8000B51F3110F7CF33243394CACF0F931F936F
:101B9000CF93DF931F92CDB7DEB708EE13E09E011F
:101BA0002F5F3F4F41E065E78091AC020E94560CE9
:101BB000882339F089818E7790E095958795809379
:101BC000AD028091AD020F90DF91CF911F910F91E7
:101BD00008950F931F93CF93DF93CCEAD2E008EEE2
:101BE00013E02DEA32E042E062E788810E94560C61
:101BF00089819A81982789279827DF91CF911F9112
:101C00000F910895BF92CF92DF92EF92FF920F93C0
:101C10001F93CF93DF931F92CDB7DEB7F82EE62E3A
:101C2000C42EB22ED02E08EE13E09E012F5F3F4F40
:101C300041E00E94560C882371F18C2D8B19990B71
:101C4000AC014F5F5F4F81E090E002C0880F991FA9
:101C5000BA94E2F70197042E01C0880F0A94EAF7BC
:101C60000D2D01C0000F4A95EAF7482F4095998144
:101C700049238023482B49836E2D8F2D0E942F0AE4
:101C80000F90DF91CF911F910F91FF90EF90DF9018
:101C9000CF90BF90089580E0F3CFCF92DF92EF9284
:101CA000FF920F931F93CF93DF931F92CDB7DEB7B1
:101CB000F82EE62EC42ED22E08EE13E09E012F5FE2
:101CC0003F4F41E00E94560C81E090E001C0880F38
:101CD000CA94EAF74981DD2081F0482B49836E2DB3
:101CE0008F2D0E942F0A0F90DF91CF911F910F919E
:101CF000FF90EF90DF90CF90089580954823EECF2E
:101D000021E042E06AE68091AC020C944D0E2F92E5
:101D10003F924F925F926F927F928F929F92AF927B
:101D2000BF92CF92DF92EF92FF920F931F93CF93C8
:101D3000DF93CDB7DEB7E3970FB6F894DEBF0FBEE3
:101D4000CDBF8F8F48A759A76AA77BA70CA71DA750
:101D50002EA73FA78B3309F000C20E94C60D88331F
:101D600008F400C227E72F8B33E03A8F6EE383E05D
:101D700092E00E94F005FE013D96FE8BED8B9E01E8
:101D80002F5F3F4F398F288F7F01DF8808EE13E0E8
:101D90009E012D5E3F4F41E06D2D8091AC020E946F
:101DA000810BAB88BC88B5010B2C000C880B990B00
:101DB0000E944A1DAF89A33109F4D9C1B1E0AB2219
:101DC000BB24F701B182A08220E030E040E051E482
:101DD0000E942E1EA88DB98D6D937D938D939C933B
:101DE0001397FA8DDF0E22E0E20EF11C888D998D9B
:101DF0000496998F888FAD89BE898A179B0731F623
:101E0000BF8DBB3309F0C0C18DEC9CECACE4BDE3ED
:101E100088AB99ABAAABBBABA6E0B0E0BFA3AEA3C7
:101E20001CA21BA2312C212CFE013196FC8FEB8FC2
:101E30009E01235F3F4F39A328A33F893AA38F8D8B
:101E40008DA3812C912C54011E8E1D8E08EE13E063
:101E50009E012D5E3F4F41E06DA18091AC020E943A
:101E6000810B6B897C89072E000C880B990B0E94D3
:101E70004A1D6B017C019F8D9B3371F4AD8DBE8D2E
:101E8000129751F420E030E040E856E4C701B60173
:101E90000E94BC1B6B017C012601370177FA70940C
:101EA00077F87094C501B4010E94481D4B015C0194
:101EB00020E030E0A901C701B6010E94211E1816DA
:101EC00014F073016201A7019601C501B4010E94DB
:101ED000BD1B0E94191D4B015C012FE632E143E856
:101EE0005AE3C301B2010E942E1E2CA53DA54EA5AA
:101EF0005FA50E942E1EEB8DFC8D208131814281D9
:101F000053810E94BD1B6B017C01AB8DBC8DCD92BA
:101F1000DD92ED92FC92139728A539A54AA55BA501
:101F2000C301B2010E942E1EA70196010E94BD1B93
:101F3000BF89B33109F432C120E030E040E05EE314
:101F40000E942E1E6B017C0120E030E0A9010E945E
:101F5000211E20E030E040E05FE387FD1AC1C701A9
:101F6000B6010E94BD1B0E94121D6E7FE8A1F9A15F
:101F700080819181682B792B7C8B6B8BAE014D5EC0
:101F80005F4F6AA18091AC020E94C9092D8D3E8DE0
:101F90002F5F3F4F3E8F2D8F3DA13E5F3DA38AA116
:101FA0009A8D890F8AA3A8A1B9A11296B9A3A8A353
:101FB000EB8DFC8D3496FC8FEB8F2D8D3E8D233079
:101FC000310509F043CF33E62316310471F489EE6D
:101FD000881683E09806A104B10438F06AE283E031
:101FE00092E00E94F005312C212CC501B4010E9421
:101FF000481D28A939A94AA95BA90E942E1E20E0E4
:1020000030E040EA50E40E949B1C87FF05C0ABA172
:10201000BCA11196BCA3ABA3B4E68B169104A1049A
:10202000B10408F0DAC0EBE02E1631040CF4D5C090
:102030002BA13CA12A3031050CF4CFC06EE283E025
:1020400092E00E94F00520E030E040E45FE368A504
:1020500079A58AA59BA50E942E1E68A779A78AA7A5
:102060009BA720E030E040E45FE36CA57DA58EA552
:102070009FA50E942E1E6CA77DA78EA79FA7CE01AD
:102080000D967C01DF88DE0111963D01D3016D9133
:102090007D918D919D913D01BF89B33109F4B1C00E
:1020A00020E030E040E05EE30E942E1E4B015C0128
:1020B00020E030E0A9010E94211E20E030E040E055
:1020C0005FE387FD99C0C501B4010E94BD1B0E945A
:1020D000121D6E7FF70180819181682B792B7C8B9B
:1020E0006B8BAE014D5E5F4F6D2D8091AC020E94F7
:1020F000C909FA8DDF0E22E0E20EF11C888D998D60
:102100008615970519F6AEA1BFA11197BFA3AEA37F
:10211000AB2B09F085CE0E94800E21E043E06AE6F9
:102120008091AC020E944D0EE3960FB6F894DEBF8C
:102130000FBECDBFDF91CF911F910F91FF90EF9018
:10214000DF90CF90BF90AF909F908F907F906F90D7
:102150005F904F903F902F90089583E18F8B92E096
:102160009A8F04CEA6E0AF8BB2E0BA8FFFCD20E00D
:1021700030E040E850E40E942E1EE88DF98D608327
:102180007183828393832DCE80E090E0A0E8BFE34B
:102190003FCEC701B6010E94BC1BE5CE20E030E077
:1021A00040E85EE30E942E1E6B017C0120E030E0DF
:1021B000A9010E94211E20E030E040E05FE387FD9E
:1021C00007C0C701B6010E94BD1B0E94121DD4CEDC
:1021D000C701B6010E94BC1BF8CF61E070E080E04F
:1021E00090E00E94E906BFEF2B1A3B0AE4E62E16A8
:1021F000310409F019CE22CFC501B4010E94BC1BE5
:1022000066CF20E030E040E85EE30E942E1E4B01E6
:102210005C0120E030E0A9010E94211E20E030E0B6
:1022200040E05FE387FD07C0C501B4010E94BD1B0C
:102230000E94121D54CFC501B4010E94BC1BF8CFEF
:1022400085ED8093BC008091FF0190910002A091E8
:102250000102B09102020796A11DB11D23E0B695BF
:10226000A795979587952A95D1F72091BC0024FDD5
:1022700003C01092FD0108954091FF0150910002AA
:102280006091010270910202452B462B472B69F3A6
:102290000097A105B10541F025E32A95F1F700006B
:1022A0000197A109B109E1CF8091FE010C946C075F
:1022B0001F920F920FB60F9211242F933F934F93BB
:1022C0005F936F937F938F939F93AF93BF93EF939E
:1022D000FF9383E092E00E94CE05FF91EF91BF91C2
:1022E000AF919F918F917F916F915F914F913F91AE
:1022F0002F910F900FBE0F901F9018951F920F9265
:102300000FB60F9211242F938F939F93EF93FF9308
:10231000E0911302F09114028081E0911902F09192
:102320001A0282FD1BC0908180911C028F5F8F7307
:1023300020911D02821741F0E0911C02F0E0ED5F58
:10234000FD4F958F80931C02FF91EF919F918F918C
:102350002F910F900FBE0F901F9018958081F4CF92
:102360001F920F920FB60F9211242F933F938F93CA
:102370009F93AF93BF938091830190918401A0912B
:102380008501B09186013091820123E0230F2D3722
:1023900058F50196A11DB11D209382018093830100
:1023A00090938401A0938501B09386018091870169
:1023B00090918801A0918901B0918A010196A11D97
:1023C000B11D8093870190938801A0938901B093F8
:1023D0008A01BF91AF919F918F913F912F910F9063
:1023E0000FBE0F901F90189526E8230F0296A11D8F
:1023F000B11DD2CF1F920F920FB60F9211242F93BF
:102400003F934F935F936F937F938F939F93AF937C
:10241000BF93EF93FF938091B900887F803609F4D2
:102420004AC0F0F5883209F4A7C018F5803109F4E4
:102430009BC0B8F4882309F4F9C0883009F494C02B
:10244000FF91EF91BF91AF919F918F917F916F918C
:102450005F914F913F912F910F900FBE0F901F9062
:102460001895883109F488C0803251F78093DB01D8
:1024700014C0803409F49DC040F48033B9F388332C
:10248000F9F68093DB0185ECB0C0803509F485C096
:10249000883509F496C0883499F60E942011D0CF6F
:1024A000883909F48CC038F5883729F050F488361B
:1024B00011F0803729F683E08093FD0110928101AD
:1024C00057C0883809F47BC0803919F0803809F08A
:1024D000B7CF80918101803208F071C0E091810115
:1024E00081E08E0F809381018091BB00F0E0EF5975
:1024F000FE4F80833DC0803B39F0E0F4803A09F420
:1025000079C0883A09F09CCF84E08093FD01109255
:10251000600110925F01E0918D01F0918E010995AB
:1025200080915F0181110FC081E080935F01109263
:102530003F0109C0803C09F4A6CF883C09F4A3CF31
:10254000883B09F07DCFE091600181E08E0F8093A0
:102550006001F0E0E15CFE4F80818093BB009091D0
:10256000600180915F0129C08091D8018093BB00F8
:1025700085EC8093BC0064CF9091DA018091D90101
:10258000981758F5E091DA0181E08E0F8093DA0117
:10259000F0E0E954FE4F8081E9CFE091DA0181E07B
:1025A0008E0F8093DA018091BB00F0E0E954FE4F7A
:1025B00080839091DA018091D9019817C8F285E85B
:1025C000D8CFE091DA0181E08E0F8093DA0180911B
:1025D000BB00F0E0E954FE4F80838091DC01811163
:1025E0005CCF81E08093D70184EA8093BC00109295
:1025F000FD0126CF85EC8093BC001092FD018091F7
:102600008101803230F4E0918101F0E0EF59FE4F1A
:1026100010826091810170E0E0918B01F0918C015A
:1026200081E691E00995109281010ACF1092DB01B9
:1026300034CFE3E0F2E01382128288EE93E0A0E070
:10264000B0E084839583A683B7832AE031E03183A9
:10265000208325EC30E03587248724EC30E0378771
:10266000268720EC30E0318B208B21EC30E0338B5F
:10267000228B22EC30E0358B248B26EC30E0378B3C
:10268000268B118E128E138E148EE0EAF2E01382E6
:10269000128284839583A683B7838CE191E0918332
:1026A000808388E68093AC0280E090E0A0E8BFE3FE
:1026B0008093030390930403A0930503B093060350
:1026C00010920703109208031092090310920A0354
:1026D00010920B0310920C0310920D0310920E0334
:1026E00010920F0310921003109211031092120314
:1026F00010921303109214031092150310921603F4
:1027000010921703109218031092190310921A03D3
:1027100010921B0310921C0310921D0310921E03B3
:102720001092200310921F03109222031092210393
:1027300010922403109223030895CF93DF93CDB713
:10274000DEB7A6970FB6F894DEBF0FBECDBF789464
:1027500084B5826084BD84B5816084BD85B58260A6
:1027600085BD85B5816085BD80916E008160809357
:102770006E001092810080918100826080938100C0
:1027800080918100816080938100809180008160D0
:10279000809380008091B10084608093B10080912B
:1027A000B00081608093B00080917A008460809353
:1027B0007A0080917A00826080937A0080917A001A
:1027C000816080937A0080917A00806880937A009B
:1027D0001092C1001092900110928F0110929401FA
:1027E0001092B6010E944E078EE495E090938E0100
:1027F00080938D018FE495E090938C0180938B0101
:10280000E0911302F091140282E08083E0910F02C4
:10281000F09110021082E0911102F091120280E119
:10282000808310921B02E0911702F091180286E05B
:102830008083E0911502F09116028081806180838F
:10284000E0911502F0911602808188608083E0910A
:102850001502F0911602808180688083E091150254
:10286000F091160280818F7D808388E18093B8008B
:1028700001E023E042E06BE68091AC020E94020E90
:1028800000E022E044E06BE18091AC020E94020E85
:1028900022E044E06CE18091AC020E94020E20E054
:1028A00046E06BE68091AC020E944D0E21E047E0CD
:1028B0006BE68091AC020E944D0E6EE170E080E00C
:1028C00090E00E94E90620E046E06BE68091AC02D1
:1028D0000E944D0E40E76DE68091AC020E942F0AE7
:1028E00046E06EE68091AC020E942F0A89E19AE0F0
:1028F0000E944C0A8FEF99E00E943D0608EE13E01B
:102900002DEA32E041E06FE68091AC020E94560C65
:102910006091AD0270E090E080E040E10E945A0AD0
:102920008AE291E00E943F0A87ED99E00E944C0AFA
:1029300040E06DE68091AC020E942F0A4FE765E20D
:102940008091AC020E942F0A20E045E06AE6809167
:10295000AC020E944D0E48E665E28091AC020E94F6
:102960002F0A21E041E06AE68091AC020E944D0E00
:1029700064E170E080E090E00E94E90603E023E07B
:1029800042E06BE68091AC020E94020E42E168E3F5
:102990008091AC020E942F0A44E069E18091AC0270
:1029A0000E942F0A01E023E045E06AE18091AC0239
:1029B0000E94020E03E023E042E06AE18091AC0253
:1029C0000E94020E22E044E06BE18091AC020E9482
:1029D000020E01E020E040E069E877E08EE492E05A
:1029E0000E94050D882309F45EC0198281E08A8364
:1029F00000E026E142E062E070E0CE0101960E9434
:102A0000050D43E060E78091AC020E942F0A40E090
:102A100061E78091AC020E942F0A20E040E060E074
:102A20008091AC020E944D0E42E06FE18091AC02B9
:102A30000E942F0A4CE961E28091AC020E942F0AA9
:102A400040E560E28091AC020E942F0A40E062E221
:102A50008091AC020E942F0A21E046E06AE6809154
:102A6000AC020E944D0E21E043E06AE68091AC0288
:102A70000E944D0E20E047E06AE68091AC020E9481
:102A80004D0E8AE290E09093BE028093BD020E94B8
:102A9000800E08EE13E02DEA32E041E06AE3809117
:102AA000AC020E94560C00E010E028EA31E44EEA45
:102AB00057E461EA7EE38BE30E94870E0FEF1FEF7E
:102AC0002CEB32E44EEA57E461EA7EE383E40E94B1
:102AD000870E0E94C60D26E0F22E883310F097E78D
:102AE000F92E8EEF91E00E943D0626E008EE13E0FD
:102AF000F21223C19E01275F3F4F43E066E08091C1
:102B0000AC020E94810B8DEF91E00E943D068BEF9D
:102B100091E00E943D0669857A85072E000C880B9E
:102B2000990B0E944A1D8E010F5F1F4F20E045E068
:102B30000E940E190E949E0A87EF91E00E943D06B6
:102B400086EF91E00E943D0684EF91E00E943D06F1
:102B50006B857C85072E000C880B990B0E944A1D03
:102B600020E045E00E940E190E949E0A80EF91E04D
:102B70000E943D068FEE91E00E943D068DEE91E0B1
:102B80000E943D066D857E85072E000C880B990BF3
:102B90000E944A1D20E045E00E940E190E949E0AF4
:102BA00089EE91E00E943D0608EE13E09E01275F4A
:102BB0003F4F43E063E18091AC020E94810B88EEBD
:102BC00091E00E943D0686EE91E00E943D066985F7
:102BD0007A85072E000C880B990B0E944A1D8E01E6
:102BE0000F5F1F4F20E045E00E940E190E949E0AD1
:102BF00082EE91E00E943D0681EE91E00E943D064A
:102C00008FED91E00E943D066B857C85072E000CC0
:102C1000880B990B0E944A1D20E045E00E940E1986
:102C20000E949E0A8BED91E00E943D068AED91E0A4
:102C30000E943D0688ED91E00E943D066D857E85EF
:102C4000072E000C880B990B0E944A1D20E045E0DE
:102C50000E940E190E949E0A86ED91E00E943D0698
:102C600021E047E06AE68091AC020E944D0E80911F
:102C7000BD029091BE029093C0028093BF020E9459
:102C8000E90D9093C2028093C1020E94C60D66E0D6
:102C9000883308F067E740E950EF8091AC020E946A
:102CA0001E0A0E94C60D68E0883308F06AE745EC0A
:102CB00056E08091AC020E941E0A0E94C60D6AE096
:102CC000883308F06DE747E756E08091AC020E9438
:102CD0001E0A4CE95FEF63E18091AC020E941E0A7C
:102CE00043EF5FEF65E18091AC020E941E0A4AE368
:102CF00050E067E18091AC020E941E0A85E2282E16
:102D000083E0382E0E94E90D9093C2028093C102A5
:102D10008115A4E09A0759F50E94800E87E39AE096
:102D20000E944C0A80E090E0892B61F30E94BA0572
:102D3000882341F30E940000E5CF9E01275F3F4FAB
:102D400041E06F2D8091AC020E94810B63E06F0D1A
:102D50009E01255F3F4F41E08091AC020E94810BB4
:102D600066E06F0D9E01235F3F4F41E0C8CE60914A
:102D7000BF027091C00286179707A0F20E94FF1E43
:102D8000892B11F00E94800E4091BF025091C00229
:102D90008091C1029091C20284179507E8F0442304
:102DA000C1F008EE13E023EC32E064E78091AC025E
:102DB0000E94560C8091C1029091C2022091BF02E4
:102DC0003091C002821B930B9093C2028093C10288
:102DD000DBCF1092C302EECFA090C702B090C80222
:102DE000BA24AB24BA24C090CB02D090CC02DC240D
:102DF000CD24DC24E090CF02F090D002FE24EF241A
:102E0000FE246091C3027091C4027627672776275B
:102E1000072E000C880B990B0E944A1D20E030E021
:102E200040E858E30E942E1E2B013C014092030310
:102E3000509204036092050370920603B501BB0C27
:102E4000880B990B0E944A1D20E030E040E858E3CF
:102E50000E942E1E4B015C01809207039092080392
:102E6000A0920903B0920A03B601DD0C880B990BFE
:102E70000E944A1D20E030E040E858E30E942E1EE8
:102E80006F87788B898B9A8B60930B0370930C03FD
:102E900080930D0390930E03B701FF0C880B990BE1
:102EA0000E944A1D20E030E040E858E30E942E1EB8
:102EB0006B8B7C8B8D8B9E8B60930F0370931003B9
:102EC00080931103909312039B01AC01C501B401DF
:102ED0000E942E1E6B017C012F85388949895A89F1
:102EE000C301B2010E942E1E9B01AC01C701B601B5
:102EF0000E94BC1B9B01AC010E94BD1B6F8F78A37D
:102F000089A39AA36093130370931403809315030A
:102F100090931603A5019401C301B2010E942E1ED5
:102F20006B017C012B893C894D895E896F8578898D
:102F300089899A890E942E1E9B01AC01C701B601A6
:102F40000E94BD1B9B01AC010E94BD1B6B8F7C8F3F
:102F50008D8F9E8F609317037093180380931903CE
:102F600090931A03A3019201C301B2010E942E1E85
:102F70006B017C01A5019401C501B4010E942E1EC4
:102F80009B01AC01C701B6010E94BC1B6B017C0117
:102F90002F85388949895A89CA01B9010E942E1E94
:102FA0009B01AC01C701B6010E94BC1B6B017C01F7
:102FB0002B893C894D895E89CA01B9010E942E1E68
:102FC0009B01AC01C701B6010E94BD1B6F8B788FBE
:102FD000898F9A8F60931B0370931C0380931D034A
:102FE00090931E03A3019201C301B2010E94BD1B75
:102FF0006B017C01A5019401C501B4010E94BD1BB8
:103000006BA37CA38DA39EA3A3019201C701B6016C
:103010000E942E1E2B013C01A50194016BA17CA1F5
:103020008DA19EA10E942E1E9B01AC01C301B20185
:103030000E94BD1B20E030E040E85FE30E94BC1B23
:103040002B013C012F85388949895A896BA17CA1C4
:103050008DA19EA10E942E1E4B015C012B893C89F3
:103060004D895E89C701B6010E942E1E9B01AC01ED
:10307000C501B4010E94BC1BA30192010E943C1C2B
:10308000609325037093260380932703909328036E
:103090002B8D3C8D4D8D5E8DCA01B9010E942E1E77
:1030A0006B017C012F89388D498D5A8DCA01B90178
:1030B0000E942E1E9B01AC01C701B6010E94BD1BE0
:1030C0000E94A11E9B01AC016F8D78A189A19AA1DC
:1030D0000E943C1C6B017C01C0922903D0922A0300
:1030E000E0922B03F0922C032F89388D498D5A8D55
:1030F0006B8D7C8D8D8D9E8D0E943C1C60932D036D
:1031000070932E0380932F039093300320E030E0E0
:10311000A9016F89788D898D9A8D0E949B1C87FFEC
:103120001AC020E030E0A901C701B6010E94211EAB
:10313000A701960118160CF06CC06BED7FE089E4D6
:1031400090E40E94BC1B6093290370932A03809330
:103150002B0390932C03309292012092910189E3EA
:1031600091E00E949E0AE0919101F091920120E08D
:1031700030E044E353E460817181828193810E9455
:103180002E1E2BED3FE049E450E40E94A01C42E0DB
:103190000E94A50A8CE391E00E949E0AE0919101B1
:1031A000F091920120E030E044E353E464817581C2
:1031B000868197810E942E1E2BED3FE049E450E46A
:1031C0000E94A01C42E00E94A50A8CE391E00E94AC
:1031D0009E0AE0919101F091920120E030E044E3F9
:1031E00053E460857185828593850E942E1E2BEDA8
:1031F0003FE049E450E40E94A01C42E00E94A50A7E
:103200008CE391E00E943F0A8AE291E00E943F0A2B
:1032100089CD6BED7FE089E490EC93CFEF920F9333
:103220001F93CF93DF93E80134E047FD34E1042E90
:10323000000C550B57FF03C0519541955109E32EE2
:10324000022F242FAE010E942C19CE01DF91CF91C5
:103250001F910F91EF900895A9E0B0E0E2E3F9E14A
:103260000C94691B6A01F22EB02E102FFBE3AF2ED7
:10327000A01608F41BE31F5F012F27E0AE014F5F8C
:103280005F4F0E948B1ABC018981982F99709130F1
:1032900009F43FC09BE2E1FC04C09E2D9170E0FC6C
:1032A0003AC05E2D5071E82FE87083FF46C084E07D
:1032B000911101C083E0EF2DE81B8F1508F0E0E0CD
:1032C000D6018E2F20E2552351F1992329F0D60102
:1032D0009C93C60101966C0196012D5F3F4FE2FE63
:1032E00024C08EE4D6018C9391E411969C9311979F
:1032F00012968C93D9018E2F90E281111BC0E20FA0
:10330000F32FF11D10828EEF9FEF2996ECE00C94C5
:10331000851B9DE2C6CF90E2C4CF2D9381508111D1
:10332000FCCFCE0ED11CE0E0D0CF8EE6D6018C9340
:1033300091E6DBCF9D938150E0CF482F447082FF10
:103340003DC084E0911101C083E08F1510F4EF2D92
:10335000E81BD6018E2F20E2552309F1992329F08D
:10336000D6019C93C60101966C0196012D5F3F4FDB
:10337000E2FE1BC089E4D6018C938EE411968C93F7
:10338000119786E412968C93D9018E2F90E28823B0
:1033900009F4B5CF9D938150FACF2D9381508111BF
:1033A000FCCFCE0ED11CE0E0D9CF89E6D6018C93BC
:1033B0008EE611968C93119786E6E4CF9B0177FFFA
:1033C00002C030E020E0A1E0B0E0911102C0B0E026
:1033D000A0E0F9013196AE0FBF1F8B2C912CBB20C2
:1033E00009F461C05401EFEFAE1ABE0AAA0DBB1D6D
:1033F000FA161B0619F014F04F2D4A1B511188C004
:10340000E3FC59C07601A42FB0E2A1114FC0C40E55
:10341000D11C992309F45BC040E0D6011196F60156
:1034200090836D01552309F448C0012F060F9A813E
:10343000582F507184FF03C0913309F401501016C6
:103440000CF047C0093008F008E0EEE2FE2E5B0108
:10345000A01AB10885019194819491082F3F3207F9
:1034600029F4D601FC92F60131966F0162177307B9
:1034700094F1021713077CF5DB01A21BB30BAA24FE
:10348000A394B12CAC0EBD1EAA0DBB1D11968C9140
:1034900021503109D601119628153905F4F0F601AD
:1034A00080836D01DBCFB12CA12CA0CFF701B193AC
:1034B0007F01A150AACF9111B0CFD601942F50E334
:1034C00002C05D9391509111FCCFC40ED11C40E01D
:1034D000ACCF01E0BACF80E3DBCF6217730731F4E2
:1034E000963388F4953311F4552369F0F6018083FF
:1034F000FD01842F90E2811108C0A40FB11D1C9220
:1035000090E080E002CF81E3F1CF91938150F3CF3F
:10351000911183CF8ACF283008F027E03327DA01D2
:10352000990F311D87FD916000966105710539F491
:1035300032602E5F3D9330E32A95E1F708959F3F77
:1035400030F080387105610509F03C5F3C5F3D93C8
:10355000913008F08068911DDF93CF931F930F93F4
:10356000FF92EF92192F987F9695E92F9695969551
:10357000E90FFF27E051FF4F99273327EE24FF245F
:10358000A701E70105900894079428F4360FE71E79
:10359000F81E491F511D660F771F881F991F06943B
:1035A000A1F70590079428F4E70EF81E491F561F4F
:1035B000C11D770F881F991F661F0694A1F70590FC
:1035C000079428F4F80E491F561FC71FD11D880FF6
:1035D000991F661F771F0694A1F70590079420F4A2
:1035E000490F561FC71FD81F990F661F771F881FC7
:1035F0000694A9F784911095177041F0D695C79558
:1036000057954795F794E7941A95C1F7E6E9F0E0E6
:1036100068941590159135916591959105907FE28B
:103620007395E118F10A430B560BC90BD009C0F78B
:10363000E10CF11E431F561FC91FD01D7EF47033CD
:1036400011F48A95E6CFE894015030F0080F0AF49F
:103650000027021708F4202F2395022F7A3328F031
:1036600079E37D932A95E9F710C07D932A9589F631
:10367000069497956795379517951794E118F10A71
:10368000430B560BC90BD00998F023957E91739587
:103690007A3308F070E37C932013B8F77E91706161
:1036A0007D9330F0839571E37D9370E32A95E1F784
:1036B0001124EF90FF900F911F91CF91DF919927E7
:1036C00087FD909508952F923F924F925F926F924F
:1036D0007F928F929F92AF92BF92CF92DF92EF92A2
:1036E000FF920F931F93CF93DF93CDB7DEB7CA1B23
:1036F000DB0B0FB6F894DEBF0FBECDBF09942A884E
:10370000398848885F846E847D848C849B84AA84F5
:10371000B984C884DF80EE80FD800C811B81AA8182
:10372000B981CE0FD11D0FB6F894DEBF0FBECDBF4D
:10373000ED010895A1E21A2EAA1BBB1BFD010DC0CD
:10374000AA1FBB1FEE1FFF1FA217B307E407F50751
:1037500020F0A21BB30BE40BF50B661F771F881F2D
:10376000991F1A9469F760957095809590959B01C3
:10377000AC01BD01CF0108955058BB27AA270E9474
:10378000D41B0C94E71D0E94D91D38F00E94E01D47
:1037900020F039F49F3F19F426F40C94AF1D0EF479
:1037A000E095E7FB0C94A91DE92F0E94F81D58F342
:1037B000BA17620773078407950720F079F4A6F516
:1037C0000C941A1E0EF4E0950B2EBA2FA02D0B01AF
:1037D000B90190010C01CA01A0011124FF27591B56
:1037E00099F0593F50F4503E68F11A16F040A22F5C
:1037F000232F342F4427585FF3CF469537952795CD
:10380000A795F0405395C9F77EF41F16BA0B620BCB
:10381000730B840BBAF09150A1F0FF0FBB1F661F12
:10382000771F881FC2F70EC0BA0F621F731F841F55
:1038300048F4879577956795B795F7959E3F08F07B
:10384000B0CF9395880F08F09927EE0F979587953D
:1038500008950E94D91D60F080E891E009F49EEF80
:103860000E94E01D28F040E851E071F45EEF0CC0CA
:103870000C94AF1D0C941A1EE92FE0780E94F81DDD
:1038800040F3092E052AB1F32617370748075907D1
:1038900038F00E2E07F8E02569F0E025E0640AC054
:1038A000EF6307F8009407FADB01B9019D01DC0121
:1038B000CA01AD01EF930E94B71C0E94E71D0E9450
:1038C0006C1C5F91552339F02BED3FE049E450FD2E
:1038D00049EC0C94BD1B0895DF93DD27B92FBF770A
:1038E00040E85FE31616170648075B0718F4D92F60
:1038F0000E94261E9F938F937F936F930E94E11ED9
:10390000E8E6F0E00E94B21D0E94E71D2F913F9172
:103910004F915F910E94411EDD2351F09058A2EA21
:103920002AED3FE049EC5FE3D0785D270E94D41B8D
:10393000DF910C94E71D0E94851D08F481E0089535
:103940000E94B41C0C94E71D0E94E01D58F00E94D8
:10395000D91D40F029F45F3F29F00C94A91D5111A5
:103960000C941B1E0C94AF1D0E94F81D68F3992344
:10397000B1F3552391F3951B550BBB27AA2762176B
:103980007307840738F09F5F5F4F220F331F441F78
:10399000AA1FA9F335D00E2E3AF0E0E832D09150AC
:1039A0005040E695001CCAF72BD0FE2F29D0660F99
:1039B000771F881FBB1F261737074807AB07B0E8DC
:1039C00009F0BB0B802DBF01FF2793585F4F3AF0E2
:1039D0009E3F510578F00C94A91D0C941B1E5F3F6F
:1039E000E4F3983ED4F3869577956795B795F79568
:1039F0009F5FC9F7880F911D9695879597F9089550
:103A0000E1E0660F771F881FBB1F621773078407EB
:103A1000BA0720F0621B730B840BBA0BEE1F88F7FA
:103A2000E09508950E94191D6894B1110C941B1E15
:103A300008950E94001E88F09F5798F0B92F99278B
:103A4000B751B0F0E1F0660F771F881F991F1AF089
:103A5000BA95C9F714C0B13091F00E941A1EB1E0B6
:103A600008950C941A1E672F782F8827B85F39F0B5
:103A7000B93FCCF3869577956795B395D9F73EF422
:103A800090958095709561957F4F8F4F9F4F0895CA
:103A9000E89409C097FB3EF49095809570956195E8
:103AA0007F4F8F4F9F4F9923A9F0F92F96E9BB279E
:103AB0009395F695879577956795B795F111F8CF1A
:103AC000FAF4BB0F11F460FF1BC06F5F7F4F8F4F85
:103AD0009F4F16C0882311F096E911C0772321F07B
:103AE0009EE8872F762F05C0662371F096E8862F13
:103AF00070E060E02AF09A95660F771F881FDAF76A
:103B0000880F9695879597F90895990F0008550F96
:103B1000AA0BE0E8FEEF16161706E807F907C0F053
:103B200012161306E407F50798F0621B730B840B5B
:103B3000950B39F40A2661F0232B242B252B21F435
:103B400008950A2609F4A140A6958FEF811D811DD5
:103B5000089597F99F6780E870E060E008959FEF0F
:103B600080EC0895DF93CF931F930F93FF92EF9212
:103B7000DF927B018C01689406C0DA2EEF010E946F
:103B8000411EFE01E894A5912591359145915591ED
:103B9000A6F3EF010E94D41BFE019701A801DA945D
:103BA00069F7DF90EF90FF900F911F91CF91DF9118
:103BB000089500240A941616170618060906089593
:103BC00000240A9412161306140605060895092EF9
:103BD0000394000C11F4882352F0BB0F40F4BF2B68
:103BE00011F460FF04C06F5F7F4F8F4F9F4F0895A8
:103BF00057FD9058440F551F59F05F3F71F047959E
:103C0000880F97FB991F61F09F3F79F08795089582
:103C1000121613061406551FF2CF4695F1DF08C0A1
:103C2000161617061806991FF1CF869571056105BE
:103C300008940895E894BB2766277727CB0197F966
:103C400008950E94851D08F48FEF08959B01AC0133
:103C500060E070E080E89FE30C94A01C0E94411E8D
:103C60000C94E71D0E94D91D38F00E94E01D20F041
:103C7000952311F00C94A91D0C94AF1D11240C94E4
:103C80001B1E0E94F81D70F3959FC1F3950F50E025
:103C9000551F629FF001729FBB27F00DB11D639FFE
:103CA000AA27F00DB11DAA1F649F6627B00DA11DA4
:103CB000661F829F2227B00DA11D621F739FB00D4A
:103CC000A11D621F839FA00D611D221F749F3327BA
:103CD000A00D611D231F849F600D211D822F762F53
:103CE0006A2F11249F5750409AF0F1F088234AF030
:103CF000EE0FFF1FBB1F661F771F881F915050409C
:103D0000A9F79E3F510580F00C94A91D0C941B1E31
:103D10005F3FE4F3983ED4F3869577956795B79522
:103D2000F795E7959F5FC1F7FE2B880F911D96953C
:103D3000879597F9089519F416F40C94AF1D0C9417
:103D4000EA1E0E94001EB8F39923C9F3B6F39F57E9
:103D5000550B87FF0E94F81E0024A0E640EA900160
:103D600080585695979528F4805C660F771F881FBA
:103D700020F026173707480730F4621B730B840BBB
:103D8000202931294A2BA6951794079420253125FF
:103D90004A2758F7660F771F881F20F02617370726
:103DA000480730F4620B730B840B200D311D411D4D
:103DB000A09581F7B901842F9158880F9695879522
:103DC00008959B01AC010C942E1E0E94851D880B4A
:103DD000990B08959F3F31F0915020F48795779586
:103DE0006795B795880F911D9695879597F90895D2
:103DF00091505040660F771F881FD2F70895AA1B75
:103E0000BB1B51E107C0AA1FBB1FA617B70710F0C5
:103E1000A61BB70B881F991F5A95A9F780959095F7
:103E2000BC01CD010895EE0FFF1F0590F491E02D28
:103E300009940F931F93CF93DF938230910510F471
:103E400082E090E0E0913303F091340330E020E031
:103E5000B0E0A0E0309799F42115310509F44AC08B
:103E6000281B390B24303105D8F58A819B816115D7
:103E7000710589F1FB0193838283FE0111C04081AA
:103E800051810281138148175907E0F048175907FB
:103E900099F4109761F012960C93129713961C9355
:103EA0003296CF01DF91CF911F910F91089500932A
:103EB000330310933403F4CF2115310551F0421729
:103EC000530738F0A901DB019A01BD01DF01F801B8
:103ED000C1CFEF01F9CF9093340380933303CDCF5B
:103EE000FE01E20FF31F8193919322503109398330
:103EF0002883D7CF2091310330913203232B41F413
:103F00002091020130910301309332032093310359
:103F100020910001309101012115310541F42DB7A7
:103F20003EB74091040150910501241B350BE091EF
:103F30003103F0913203E217F307A0F42E1B3F0B7D
:103F40002817390778F0AC014E5F5F4F241735070B
:103F500048F04E0F5F1F509332034093310381931B
:103F600091939FCFF0E0E0E09CCFCF93DF93009759
:103F7000E9F0FC01329713821282A0913303B091D1
:103F80003403ED0130E020E01097A1F4208131816D
:103F9000820F931F20913103309132032817390784
:103FA00009F061C0F0933203E0933103DF91CF91C8
:103FB0000895EA01CE17DF07E8F54A815B819E018B
:103FC00041155105B1F7E901FB83EA834991599104
:103FD000C40FD51FEC17FD0761F480819181029613
:103FE000840F951FE90199838883828193819B8344
:103FF0008A83F0E0E0E012968D919C9113970097F0
:10400000B9F52D913C911197CD010296820F931F26
:1040100020913103309132032817390739F6309750
:1040200051F51092340310923303B0933203A093EE
:104030003103BCCFD383C28340815181840F951F4C
:10404000C817D90761F44E5F5F4F88819981480F87
:10405000591F518340838A819B81938382832115D9
:10406000310509F0B0CFF0933403E09333039ECFD2
:10407000FD01DC01C0CF13821282D7CFFB01DC012E
:1040800004C08D910190801921F441505040C8F72F
:0A409000881B990B0895F894FFCFE8
:10409A0000003503800000000000F00550057D0592
:1040AA005806AE058C05A005000000009A096D09A6
:1040BA00EC0943096609530944090D0A006E616E49
:0E40CA0000696E66006F7666007970720900FC
:00000001FF
